:020000040800F2
:10000000281E0020592D00085D2B00085F2B0008DA
:1000100000000000000000000000000000000000E0
:10002000000000000000000000000000252B000878
:100030000000000000000000E72A0008A92A0008CC
:100040000B080008000000004F090008BB0D000865
:10005000971B0008FB2900080F2D00081B2D000826
:10006000000000007D2D0008612B00086B2B0008AC
:100070007F2D0008752B0008812D0008000000006E
:10008000832D0008852D0008872D0008892D000884
:100090008B2D00088D2D00088F2D0008912D000854
:1000A000932D0008952D0008972D00087F2B000840
:1000B000892B0008932B00080000000000000000BE
:1000C00010B5040001D1012010BD3D20205C0028A6
:1000D00004D13C216054200000F0F1FB0EE00068E8
:1000E0000121C2680A43C26082685207520F062A81
:1000F00002D00268114301600020704702203D21B8
:100100006054211D206800F011FA01203D21605447
:10011000002010BD10B5040001D1012010BD3D200C
:10012000205C002804D13C216054200000F00EFC2B
:10013000E4E704000D0006D0042D0BD0082D10D0EC
:100140000C2D15D01CE02068C1682A4A0A40C26004
:10015000606A13E02068C168274A0A40C260A06A4A
:100160000CE02068C168254A0A40C260E06A05E0E8
:100170002068C168224A0A40C260206B00F010FC6F
:1001800000222900206800F033FB226813481D4933
:10019000154B9A4208D0154B9A4205D0144B9A42FF
:1001A00002D0104B9A4209D1136A0B4006D1136A50
:1001B000034003D1536C0A4D1D4055642268136AF5
:1001C000194006D1116A084003D110680121884303
:1001D000106001203D216054002032BD4404000025
:1001E000FF7FFFFF00480140002C0140004001401C
:1001F00000440140FFFDFFFFFFFBFFFFFFF7FFFF94
:10020000FFEFFFFF1111000038B504000D00002CB6
:1002100001D1012032BD3D20205C002804D13C21C9
:100220006054200000F052FC02203D216054211D4A
:10023000206800F07BF92068016808229143016082
:10024000206801680D430560C3E7F8B50400206825
:10025000002502260169314015D0C168314012D015
:100260000221C9430161012121778069800703D000
:10027000200000F02CFC05E0200000F029FC20000C
:1002800000F027FC2577206804270169394016D043
:10029000C168394013D00421C943016126778069C0
:1002A000C0218900014003D0200000F010FC05E0CF
:1002B000200000F00DFC200000F00BFC25772068EA
:1002C00008260169314014D0C168314011D008219D
:1002D000C94301612777C069800703D0200000F07F
:1002E000F6FB05E0200000F0F3FB200000F0F1FB3E
:1002F00025772068102102690A4016D0C268114093
:1003000013D01021C94301612677C069C02189003B
:10031000014003D0200000F0DAFB05E0200000F0EF
:10032000D7FB200000F0D5FB25772068012102696A
:100330000A4008D0C268114005D00121C9430161BB
:10034000200000F019FC2068802102690A4008D0D2
:10035000C268114005D08021C9430161200000F02E
:1003600018FC2068402102690A4008D0C268114088
:1003700005D04021C9430161200000F00BFC20683A
:10038000202102690A4008D0C268114005D020210E
:10039000C9430161200000F0FEFBF1BDF8B5040087
:1003A0003C20205C012801D10220F2BD01203C2329
:1003B000E05402203D23E0542B4F86020D00002A1A
:1003C00006D0042A15D0082A25D00C2A34D044E0BF
:1003D000206800F0E3F82068816908220A438261FE
:1003E00020688169042291438161206881692A69BA
:1003F0000EE0206800F00DF9206881690E438661E7
:10040000206881690F408761206881692A6912022A
:100410000A43826121E0206800F02FF92068C16959
:1004200008220A43C2612068C16904229143C16164
:100430002068C1692A690EE0206800F050F9206840
:10044000C1690E43C6612068C1690F40C761206859
:10045000C1692A6912020A43C26101203D21605428
:1004600000203C216054F2BDFFFBFFFF70B504008B
:100470003C20205C012801D1022070BD26003C36C2
:100480000125357002203D22A05420688268264B49
:1004900013408360086802003CD010283AD020281E
:1004A00038D0302836D040282DD050281DD0602894
:1004B00022D0702803D06B0398420AD02EE0CB687C
:1004C0004A688968206800F071F92068816877229D
:1004D00008E0CB684A688968206800F067F92068FE
:1004E0008168AA030A43826018E0CA6849682068E4
:1004F00000F02EF950210EE0CA684968206800F02B
:1005000038F9602107E0CA684968206800F020F9DE
:10051000402100E00100206800F040F93D20255412
:100520000020307070BD00008800FFFFF0B5066845
:10053000804A814B814C824DA84201D0A04206D115
:100540007027BE4337004E683E43A8420BD0A042FE
:1005500009D07C4CA04206D0984204D0904202D0F0
:100560007A4CA04203D1784C3440CE682643802494
:10057000A6434C69344304608C68C4620C6884628E
:10058000A84206D0984204D0904202D06F4A9042CE
:1005900001D10969016301214161F0BDF8B5026A29
:1005A00001239A430262036A426884697325AC435B
:1005B0000D68254300950224A3438C681C435D4BC2
:1005C0005D4D5F4EB04206D0A84204D0984202D0A2
:1005D0005E4FB8420CD10827BC432700CC683C438F
:1005E0000427BC43B04206D0A84204D0984202D0AF
:1005F000564B984205D1724B13404D691D438A6991
:100600002A434260009A8261496841630462F1BDF5
:10061000000070B5026A10239A430262026A4368BE
:1006200084695D4D25400C6824022C432025AA4393
:100630008D682D011543424A904208D1802295438E
:100640002E00CA68150135434022954308E03A4A16
:10065000904205D0374A904202D03C4A904206D19F
:10066000584A1A404B698E691E43B30013434360D6
:10067000846149688163056270BD70B5026A524B3E
:1006800013400362046A4268C56973239D430B6883
:100690002B434E4D25408C6824022C43284DA84204
:1006A00007D14B4D2540CC6826022E43494C34409F
:1006B00008E0214DA84205D01E4DA84202D0234D8E
:1006C000A84206D1444D15404A698E69164332014D
:1006D0002A434260C3614968C163046270BD30B59A
:1006E000026A3E4B13400362036A4268C4692A4DA2
:1006F00025400C6824022C43394D1D408B681B0398
:100700002B430F4DA84208D00B4DA84205D0094DF0
:10071000A84202D00D4DA84204D1324D15404A697D
:1007200092012A434260C46149680164036230BD9A
:10073000000000000044014000400140000400406F
:10074000002C014000200040FFFCFFFF004801405A
:1007500030B5036A046A0125AC4304628469F0255C
:10076000AC431201224382610A229343194301627E
:1007700030BD30B5036A1024A34303628469036A61
:10078000194D254012032A438261A0229343090197
:100790001943016230BD0000FF8CFFFF82687023A7
:1007A0009A43114307220A438260704730B5846838
:1007B0000E4D254029430A4319021143816030BD83
:1007C000FFFCFFFFFFF3FFFFFFFEFFFFFFFDFFFF4B
:1007D000FFF7FFFFFFFBFFFFFFCFFFFFFFEFFFFF75
:1007E000FFDFFFFFFFBFFFFFFF0FFFFFFF00FFFF68
:1007F00010B5C906C90E036A01248C40A3430362E5
:10080000036A8A401A43026210BDFEE730B58DB01C
:1008100009A8102100F0C0F94AA003C86A4603C223
:1008200002A81C2100F0B8F93F4C40482060404825
:1008300060600025A5603F48E06025618020A061E0
:100840002000FFF73DFC002801D000F0A1F9802036
:100850004001099009A92000FFF708FE002801D0F7
:1008600000F096F92000FFF755FC002801D000F0B9
:100870008FF908212000FFF7C7FC002801D000F005
:1008800087F9009501956946200000F08DF9002850
:1008900001D000F07DF96020029027480390049574
:1008A0000695002202A92000FFF778FD002801D05C
:1008B00000F06EF9200000F012F80DB030BD81B0EC
:1008C00000681A49884208D102201C490A6802437C
:1008D0000A60096808400090009801B0704710B5A0
:1008E00086B0040001A8142100F056F920680F49D1
:1008F000884216D1480B12490A6802430A60096807
:1009000008400090009840200190022002900020B2
:10091000039004900120059001A99020C00500F0EB
:1009200075F906B010BD0000A019002000040040B9
:100930007FBB00005FEA0000CF0700001C100240F0
:100940001410024000000000000000007047FEE7A5
:1009500010B5040001D1012010BD022021216054F6
:10096000206801680D4A0A4061681143A2680A4381
:10097000E168114322690A4361691143A2690A438C
:10098000E16911430160200000F08EF80020A063AF
:1009900001212122A1542021605410BD0FC0FFFF6E
:1009A00070B50022002401212123C35C022B03D057
:1009B00004228263012415E003681D680E26B543F6
:1009C0001D6003681D688D431D60036C01259D40FB
:1009D000C36B5D602123C15420214254416B002927
:1009E00000D08847200070BDFEB5C16B0968019139
:1009F00001680A68009220220423019C056C0426E9
:100A0000AE40264011D0009C1C400ED00C68224005
:100A100002D10A689A430A60016C8B40C16B4B603B
:100A2000C16A00293FD08847F7BD01230224002571
:100A3000019EB446066C0227B7406646374016D082
:100A4000009E264013D00E68324005D10A680A265F
:100A5000B2430A6021214354016C8C40C16B4C604D
:100A600020214554816A00291DD08847F7BD0822FE
:100A70006446066C0827B740274014D0009C2240EB
:100A800011D00A680E24A2430A60016C01228A4038
:100A9000C16B4A6083632121435420214554016B7B
:100AA000002900D08847F7BD10B50400206805492B
:100AB0004018142100F066F9800020640248E063C9
:100AC00010BD0000F8FFFDBF0000024070477047F6
:100AD0007047704780B500F071F900F01BF800F026
:100AE0007DF900F0B5F900F0D1F900F0D3F900F08C
:100AF000E9F900F0EFF900F02FFB00F08BFB00F0BC
:100B0000E5F900F0EBF9FFF781FE00F0A5FB00F03E
:100B1000D1FCFEE738B594B008A8302100F03CF8CD
:100B20006846102100F038F804A8102100F034F8CD
:100B30000A20089001200B9010210C910F900224A4
:100B40001094C0031190400112900025139508A83D
:100B500000F0DEFC0720009001940295039501212E
:100B6000684600F0AFFE212004900695079504A882
:100B700000F08AFF15B030BD00680449884200D0FB
:100B8000704780B500F0FEFF01BD0000002C014061
:100B90007047704770477047002200BF094202D07B
:100BA000491E4254FCD17047F0B53C22825C012AB8
:100BB00001D10220F0BD02003C3201231370022457
:100BC0003D25445505686E68AC687027BE430F68C4
:100BD00037436F6005680A4EB54205D0094EB542ED
:100BE00002D0094EB54204D18026B443496821435E
:100BF000A9603D21435400201070F0BD00000000AA
:100C0000002C01400004004000400140FEB50022DD
:100C10000F2302932AE0052403E0544CA042FAD1AA
:100C20000324B4402C43019D2C60514D2E68DC43BD
:100C300026404F68FF0300D51E432E606E68264095
:100C40004F68BF0300D51E436E60AE6826404F68F4
:100C5000FF0200D51E43AE60EE6834404E68B60217
:100C600002D526001C003443EC60521C0C682300A3
:100C7000D34073D00123934001932340F5D09400D7
:100C80006D462C704C68022C01D0122C11D1D40866
:100C9000A40005192C6A6E4637781C263E40029F38
:100CA000B740BC430F69BC4637006646BE4026438A
:100CB0002E62066854000327A740FD432E400F799B
:100CC000BF07BF0FA740374307604E68012E05D00E
:100CD000022E03D0112E01D0122E10D186682E4084
:100CE000CF68A740374387604768019EB743BC463B
:100CF0004F68FE06F60F964067463E434660C6685C
:100D000035408E68A6402E43C6604C68E400ACD5E2
:100D10000124184D2D682543164E35603568254051
:100D20000195019D144D9608B600AD1901952D68E9
:100D30006E4637780C263E40029FB740BD43902751
:100D4000FF05B84201D100246BE70C4FB842FBD03D
:100D50000B4CA04200D060E7022462E7F7BD002AF6
:100D600001D081617047816270470000000C00482B
:100D7000000401401810024008000140000400482F
:100D800000080048094214D088420FD30122030C06
:100D900001D100041204002300185B418B4200D3F0
:100DA0005B1A5241F8D3190010007047010000206F
:100DB000704708B500F0EEFE08BDFEE780B50648B6
:100DC000016810220A430260002000F0E5FE00F0F6
:100DD00021FF002002BD00000020024038B586B08F
:100DE00001A81421FFF7D8FE8021C9031648026824
:100DF0000A43026002681140009100998021890233
:100E000002680A4302600268114000910099802143
:100E1000C90202680A43026000680140009100981C
:100E2000F0242402094D002221002800FFF797FF3B
:100E300001940120029000200390049001A9280051
:100E4000FFF7E4FE07B030BD141002400004004874
:100E500080B501200C490A6802430A60096808400D
:100E600000900098002203210A2000F00CFF0A20C5
:100E700000F00DFF002203210B2000F004FF0B20E7
:100E800000F005FF01BD00BF1410024080B5A0486E
:100E9000A04902E080B5A048A0490160E1214902D3
:100EA000416000218160C16001610C224261816169
:100EB000C1610162416200F0F9FE002801D0FFF734
:100EC00067FE01BD80B596489A49E6E780B595482A
:100ED0009949E2E780B594489849DEE780B59348A0
:100EE0009749DAE7F1B586B001A81421FFF754FE5F
:100EF00006980068009001250320002402210A04BE
:100F00008B4B009E834FBE4220D14E035F68374318
:100F10005F605F683E400096009E1E6816431E603C
:100F20001B681A400092009A4202019202910394B7
:100F30000490059501A99020C005FFF767FE0022E7
:100F400003211B2000F09FFE1B20DCE0734FBE42FC
:100F50001FD19E6816439E609E6816400096009EB4
:100F60001E6816431E601B681A400092009A0C22ED
:100F70000192029103940490059501A99020C00567
:100F8000FFF744FE002203211C2000F07CFE1C2001
:100F9000B9E00425674FBE4219D19A684E04164342
:100FA0009E609A684E0432400092009A1A68164376
:100FB0001E601A684B041A400092009A8202019245
:100FC000029103940490059501A95E4893E05A4F5D
:100FD000BE4214D18E049F6837439F609F683E4095
:100FE0000096009E1E6816431E601B681A40009201
:100FF000009A0190029103940490059578E04F4F78
:10100000BE425BD1CA049E6816439E609E68324011
:101010000092009A4A041E6816431E601B681A401C
:101020000092009A1822019202910394049005956F
:1010300001A94448FFF7EAFD434D444E2E606C6021
:10104000AC608027EF602C616C61AC61EC612800C2
:10105000FFF77EFC002801D0FFF79AFDB06F3C49F6
:101060000140B167B06FC02109010143B167069823
:10107000C566069868623000143068641020A86461
:10108000EC642F656C65AC65EC652C66280044301B
:10109000FFF75EFC002801D0FFF77AFDB06F2D4905
:1010A0000140B167B06FC02109020143B167280058
:1010B0004430069988660698A8661EE03546204E9C
:1010C000B54222D120255E682E435E605E683540C1
:1010D0000095009D1D6815431D601B681A40009215
:1010E000009A302201920291039404900520059009
:1010F00001A99020C005FFF789FD002203211D20D2
:1011000000F0C1FD1D2000F0C2FD07B0F0BD0000E1
:1011100018120020003801409812002000440040BE
:101120001813002098130020181400209814002091
:101130001410024000480040004C004000500040A5
:1011400000140140000400489011002030000240CB
:10115000FFF0FFFFFF0FFFFF10B5294C294820606B
:10116000294860600020A0600121E1602061606189
:10117000A061E0612062200001F048F8002801D061
:10118000FFF706FD0021200001F09AF8002801D0A9
:10119000FFF7FEFC0021200001F0AFF8002801D08D
:1011A000FFF7F6FC10BD10B586B0040001A81421AD
:1011B000FFF7F2FC2068134988421FD18020C0024B
:1011C000124C21680143216021680840009000987A
:1011D000C02001901220029001200390032104916D
:1011E000059001A90A48FFF711FD80208003A1683E
:1011F0000143A160A16808400090009806B010BDAE
:1012000064170020005400400E0900201410024012
:101210000004004880B50848084901600421416085
:101220000749C1600749816001F090F8002801D0AA
:10123000FFF7AEFC01BD00BF141A002000300040D3
:10124000FF0F0000350C0000464B036018005430BF
:10125000086080201060704718B5BDB055A003C865
:101260000AAA03C2404C01210AA800F043F9E06138
:1012700052A003C808AA03C2012108A800F03AF945
:10128000206200BF4FA003C806AA03C2012106A81E
:1012900000F030F9606200BF4CA003C804AA03C28A
:1012A000012104A800F026F9A06200BF49A003C8EC
:1012B00002AA03C2012102A800F01CF9E06200BFEB
:1012C00046A003C86A4603C20121684600F012F92D
:1012D000206336A843A11C2201F064F8002136A83F
:1012E00000F0EDF820602FA845A11C2201F05AF86B
:1012F00000212FA800F0E3F8606028A847A11C2275
:1013000001F050F8002128A800F0D9F8A06021A829
:1013100049A11C2201F046F8002121A800F0CFF8D5
:10132000E0601AA84BA11C2201F03CF800211AA889
:1013300000F0C5F8206113A84DA11C2201F032F87D
:10134000002113A800F0BBF860610CA84FA11C227B
:1013500001F028F800210CA800F0B1F8A0613EB01F
:1013600010BD000014000020E019002080B501200D
:1013700000F0B8F8FBE780B5012000F0B3F8FBE718
:1013800080B5012000F0AEF8FBE780B5012000F049
:10139000A9F8FBE780B5012000F0A4F8FBE780B5D1
:1013A000012000F09FF8FBE780B5012000F09AF8DB
:1013B000FBE7000000000000B01700200000000064
:1013C000F817002000000000401800200000000076
:1013D0008818002000000000D01800200000000045
:1013E00018190020D42B00086D130008FDFF000021
:1013F0000000000080000000680200201815002096
:10140000D82B00087713000800000000000000003F
:1014100080000000680400206C150020E42B000808
:1014200081130008000000000000000080000000A0
:1014300068060020C0150020F02B00088B13000860
:10144000000000000000000080000000680800208C
:1014500014160020002C000895130008000000005E
:101460000000000080000000680A002068160020CC
:10147000102C00089F13000800000000000000006E
:1014800080000000680C0020BC160020202C000802
:10149000A9130008FEFF000000000000800000000B
:1014A000680E00201017002001000020842900D0C1
:1014B000C81C704780B501F063F8002002BD3EB53E
:1014C00004000D000820205EFFF7EEFFA1690291E5
:1014D0006169019100902B0022692168606800F029
:1014E0007BFF3EBD80B5002800D1012001F02EF821
:1014F000002002BD80B5012908D103210091436875
:1015000000220021012001F0F7F902BD002002BDF8
:10151000F8B504001BD0B54D2078C00719D5802739
:10152000BF0268680C21014004290BD07808696863
:101530000C220A40082A46D16968C02252020A4099
:10154000824240D12868074003D06068002800D15B
:1015500020E1207880071ED568680C2101400CD05E
:1015600068680C21014008295FD16868C0214902E0
:10157000014080200002814257D12868800703D5AE
:10158000E068012800D005E12868F8218843216936
:10159000C900014329602078000770D5E069002860
:1015A000686A64D001210143696201F0D3F9060041
:1015B000686A800700D5EFE001F0CCF9801B0228B3
:1015C000F6D90320F2BD6368012B09D0BA49BB4AA2
:1015D000002B09D0052B07D1296882000A432A6015
:1015E00029680843286005E0286802402A602868C6
:1015F00001402960606800280BD001F0ABF90600BB
:1016000028683840A5D101F0A5F9801B6528F7D3DB
:10161000D7E701F09FF906002868384099D001F01B
:1016200099F9801B6528F7D3CBE7E0680028286884
:101630000ED001210143296001F08CF906002868D1
:101640008007A1D401F086F9801B0228F7D9B8E7FA
:1016500001218843286001F07DF906002868800791
:1016600099D501F077F9801B0228F7D9A9E7012164
:101670008843686201F06EF90600686A800700D44A
:101680008AE001F067F9801B0228F6D999E7042067
:10169000C0430122D24300290AD0052908D1286A73
:1016A000042101432962286A01210143296205E0DE
:1016B000296A0A402A62296A08402862804FA06885
:1016C00000280CD001F046F90600286A800700D5F2
:1016D00094E001F03FF9801BB842F6D371E701F0C6
:1016E00039F90600286A800700D487E001F032F952
:1016F000801BB842F6D364E701F02CF9801B022866
:1017000000D896E05DE701F025F9801B022800D89B
:10171000ADE056E70421C9438842686B03D1042138
:101720008843686389E0042101436963686B012190
:101730008843686301F00EF90600686B800766D580
:1017400001F008F9801B0228F7D93AE70140296027
:1017500001F000F904002868800100D4A9E001F03C
:10176000F9F8001B0228F6D92BE7012812D0686887
:10177000E96AC02252020240636A9A420AD109070A
:10178000090FE26A914205D1F02189030140A06A64
:1017900081425AD00120F2BD2078400735D5002083
:1017A000009080204005E969014008D1E9690143C2
:1017B000E961E96908400090009801200090914893
:1017C0000068C00514D48F480068A90D01438D48F6
:1017D000016001F0BFF806008A480068C00507D420
:1017E00001F0B8F8801B6528F6D3EAE60010024045
:1017F000A168012900D04AE7286A56E70098002826
:1018000003D0E86980490140E9612078C0061AD513
:101810006069F827FF43012800D07BE7686B04214B
:1018200001436963686B01210143696301F092F828
:101830000600686B800700D45EE7686B0740A0690C
:10184000C00038436863206A002832D069680C22DF
:101850000A40082A89D06D490228286800D075E717
:101860000140296001F076F806008027BF0428684F
:10187000384000D047E7E86A0F218843E16A014316
:10188000E96268686E490140A06A0843616A0143E1
:101890006960286879080143296001F05BF8040059
:1018A0002868384005D101F055F8001B0228F7D907
:1018B00087E60020F2BD0000FFFFFBFFFFFFFEFFF9
:1018C00089130000F8B5040078D000915D480068E5
:1018D000C107C90F009881420CD25A480168012201
:1018E0009143009A0A4302600068C107C90F00983B
:1018F000814263D12168544D022001420CD0490736
:1019000004D56968E022D2000A436A606968F0225F
:101910009143A2680A436A600127216839403DD09B
:101920006168012902D12868800303E0022903D1FC
:101930002868800103D441E02A6810403ED06868DE
:10194000032290430143696001F004F806006868CF
:101950000C2101406068800081421FD000F0FAFF36
:10196000801B3A498842F2D30320F2BD2078400719
:1019700005D5686836490140E0680843686000F0B2
:101980001FF834496A681206120F895CC840324950
:101990000860002000F000F90020F2BD29480099FD
:1019A00002683A409142E1D20168B943009A0A4381
:1019B00002600068074000988742D7D00120F2BD3E
:1019C00030B526490C6826480C222240082A0CD142
:1019D0000F2200BF24A3A50C15405D5D26A3896AD4
:1019E0000A40995CFFF7CEF9684330BD1A48006899
:1019F0001C491A4A12685205520F895CC840704748
:101A00000000000000700040FFFFFFEFFFFFFFFE3F
:101A100010B507220260114A13689B079B0F4360B1
:101A20001368F0241C4084601268E023DB0013403C
:101A3000C36004480068C207D20F0A6010BD0000EE
:101A4000FF7FC2FF00200240001002408913000007
:101A5000FFF8FFFF342D00081000002004100240A2
:101A600000127A00742D0008020304050607080915
:101A70000A0B0C0D0E0F10100102030405060708D7
:101A8000090A0B0C0D0E0F10F8B50700374C38681B
:101A9000C00357D5002000908020400521680140F8
:101AA00008D1216801432160216808400090009816
:101AB000012000902E4E3068C00517D43068A10D6B
:101AC0000143316000F046FF05003068C0050DD4C9
:101AD00000F040FF401B6528F7D30320F2BD00F063
:101AE00039FF401B234988421DD3F6E7C020800000
:101AF00061680140204A1600002917D07A6810401A
:101B0000814213D0606830406168802252020A43EB
:101B100062606168194A0A4062606060C00705D56A
:101B200000F018FF050060688007D8D5606806409F
:101B30007868304360600098002803D0206810491E
:101B4000014021603878C00705D5606903218843CA
:101B5000B968014361613878800605D56069102154
:101B60008843F968014361610020F2BD1C10024006
:101B70000070004089130000FFFCFFFFFFFFFEFF25
:101B8000FFFFFFEF02484168027889184160704703
:101B9000040000207047FEE710B586B00100002267
:101BA0000D2000F070F80D2000F071F88020000189
:101BB00013490A6802430A600968084000900098C7
:101BC00001A902A8FFF724FFFFF710FF0D4C0E49F3
:101BD00021600E49E1600E49FFF7D4F8401E6060B5
:101BE00000202061A0602000FEF76AFA002803D1DF
:101BF0002000FEF774FA00E0012006B010BD0000DE
:101C00001810024060190020002C0140E70300007A
:101C100040420F0080B501200B490A6802430A6068
:101C20000A68104000900098802040054A680243EE
:101C30004A60496808400090009800220321012072
:101C4000C04300F020F801BD1810024010B5C200DA
:101C500018231340FF249C40E2438907090E994052
:101C6000030004D40E489B089B00C01806E00D4BEF
:101C70000007000F083880088000181803681A4011
:101C80001143016010BD80B5FFF7E0FF01BD010009
:101C900005D40121C006C00E814003480160704791
:101CA00000E400E01CED00E000E100E038B50400D5
:101CB00014D0250070356868002803D128702000F2
:101CC000FFF710F924206860206801680122914321
:101CD0000160200000F0C8F8012801D1012032BDC8
:101CE000606A002802D0200000F05EF92068416898
:101CF000084A0A4042602068816808229143816056
:101D0000FFE72068016801220A430260200000F01A
:101D1000AFF932BDFFF7FFFFF8B504002368D869BB
:101D200019689A6800924F4F07404025ED432022E2
:101D30000026002F09D187067CD58F067AD5216E23
:101D4000002901D020008847F1BD009FFF0703D480
:101D500090277F000F406DD0C70706D5CF0504D56B
:101D600001271F62E36F1F43E767830709D5009BC5
:101D7000DB0706D5022327683B62E36F04271F4376
:101D8000E767430709D5009BDB0706D504232768CF
:101D90003B62E36F02271F43E76703070AD58B0601
:101DA00002D4009BDB0705D5082327683B62E76F59
:101DB0003B43E367030507D54B0105D5930127682E
:101DC0003B62E36F1A43E267E26F002A48D0800665
:101DD00006D5880604D5216E002901D02000884749
:101DE000E06F402721688968394002D128210140ED
:101DF0001BD0200000F0D2F9206881680F4010D07D
:101E000081680D408560E06E00280AD06549416315
:101E1000E06EFEF7C5FD002822D0E06E416B8847DA
:101E2000F1BD200000F09CFDF1BD200000F098FD08
:101E3000E667F1BD070607D50F0605D5616E0029D7
:101E40000ED020008847F1BD400609D5480607D5C9
:101E5000186805401D6062676666200000F081FD1D
:101E6000F1BD00000F080000F8B5060000250020B5
:101E7000002431680A68964B1340B2681A433369EC
:101E8000134372691A43F36913430B604A68914B19
:101E90001340F2681A434A608A688F4B1340B26954
:101EA0001A43336A13438B6010228C4B99420FD133
:101EB0008B4909688907890F19D0022906D003D3F5
:101EC000032915D1022213E0042211E008220FE0B9
:101ED000844B99420BD0844B994208D0834B994252
:101EE00005D0AC4B994202D0AB4B994200D10022B5
:101EF0000092B24F80221202F1699142009927D1DB
:101F0000002906D0022907D0042909D008290DD0BC
:101F100014E0FFF76BFD05E071684808A84A08E087
:101F2000FFF74EFD716840004A0802E071684808FA
:101F300052008018FEF726FF80B200E00124010065
:101F40001039B94228D207400007400F384320E03B
:101F5000002906D0022907D0042909D008290CD06D
:101F600012E0FFF743FD05E071684808954A06E076
:101F7000FFF726FD71684A0801E07168480880187B
:101F8000FEF700FF80B200E0012401001039B942E1
:101F900002D23168C86000E0012435667566200011
:101FA000F2BD0000F12100082421415CC90706D5DB
:101FB00001684A68844B1340826A1A434A602421AC
:101FC000415C890706D501684A68804B1340C26AA4
:101FD0001A434A602421415C490706D501684A68D2
:101FE0007B4B1340026B1A434A602421415C090772
:101FF00006D501684A68774B1340426B1A434A6022
:102000002421415CC90606D501688A68724B1340D9
:10201000826B1A438A602421415C890606D50168D7
:102020008A686E4B1340C26B1A438A602421415C5C
:10203000490611D501684A68694B1340026C1A437E
:102040004A60026C80235B039A4205D14A68654B63
:102050001340426C1A434A602421415C090606D5AC
:1020600001684A68604B1340806C184348607047B1
:10207000F8B5040000257030C56000F06BFC070067
:102080005A4E20680068000709D500963B000022E0
:1020900080218903200000F02BF800280DD1206852
:1020A000006840070BD500963B0000228021C90341
:1020B000200000F01DF8002801D00320F2BD21000F
:1020C00070312020486088600D700020F2BD000053
:1020D000F369FFEFFFCFFFFFFFF4FFFF0038014080
:1020E000301002400044004000480040004C0040D6
:1020F000FEB5089F80242401002506000191684652
:10210000027002933068C0690199014001988142D0
:1021100001D1012000E0002069460978884236D1CB
:102120000020C0438742EDD000F014FC0299401A11
:10213000874201D3002F0FD130680168314A0A402D
:102140000260306881680122914381603000703004
:1021500020214160816017E0306801684907D1D5CE
:10216000C1692140CED0046230680168254A0A4026
:1021700002603068816801229143816030007030D4
:10218000202141608160C16005700320FEBD0020F8
:10219000FEBD0000005000400014014001680A68C4
:1021A000194B13400B6001688A6801239A438A60C7
:1021B000202181670021016670470000F0FF0000C8
:1021C0000024F40000127A00FFFFFDFFFFFFFEFF76
:1021D000FFFFFBFFFF7FFFFFFFEFFFFFFFDFFFFFC3
:1021E000FFFFEFFFFFFF9FFFFFFFF7FFFFFFFF0175
:1021F00080B5406A0100523100220A810A8000F055
:10220000AFFB01BD5FFEFFFFDFFEFFFF70B5040007
:1022100001D1012070BD25004035002668780028D6
:1022200003D12E702000FEF7BEFF242068702068C6
:10223000016801229143016060681E4901402068E5
:10224000016121681C488A6802408A60E1680129AE
:10225000A16801D1C24301E0842212020A4321682D
:102260008A60E168022903D1802109012268516056
:1022700021684A68114B13434B602168CA681040BB
:10228000C860206961690143A069000208432168B0
:10229000C860E069216A0143206801602068016824
:1022A00001220A4302606E60202068702663AE70CF
:1022B000002070BDFFFFFFF0FF7FFFFF00800002E6
:1022C00070B5020040325378202B14D14023C35CF8
:1022D000012B10D001231370242454700468256846
:1022E0009D43256004682568164E2E4026600468CC
:1022F000256829431CE0022070BD70B50200403201
:102300005378202B12D14023C35C012B0ED0012324
:10231000137024245470046825689D432560046864
:102320002568094E2E400902314301E0022070BDAC
:102330002160006801680B4303602020507000207A
:10234000107070BDFFEFFFFFFFF0FFFF38B5050015
:1023500001D1012032BD28680F4901600F49016099
:1023600069684160A968816000F0F4FA0400286897
:10237000C16800290AD000F0EDFA001B3128F6D31D
:10238000032032BD06490160002032BDE9680269C0
:102390008A42F7D00161F7E7CCCC00005555000028
:1023A000AAAA000070B4103A03D378C9103A78C0D2
:1023B000FBD2530701D318C918C001D508C908C0FA
:1023C000D20704D30B880380891C801C002A01D506
:1023D0000B78037070BC704778B585B00B9D002DED
:1023E00001D172B6FEE70C9C002C01D172B6FEE75B
:1023F00054260096009E542E01D072B6FEE70A9E27
:10240000256300250395029404AD0195009600F024
:1024100007F8200000F044F8049806B070BD0000F2
:10242000F9B581B00A9C206B920087183F1F0720E6
:1024300087437807002500913426009909180A7807
:1024400023189A550978002902D0401C1028F4D38B
:10245000089E43216554062E00D90626E66266646E
:10246000200044304560201D00F08BFA2000183019
:1024700000F087FA24610720801BA06164622000BD
:1024800044308560200044300573029A0199380079
:1024900000F0B4FA20600998002800D00460F7BD6D
:1024A000F8B5040000F0E8FA334DE86C401CE8642D
:1024B000324FA86A002825D1AC62E86C01282AD1E5
:1024C000002614207043381800F04CFA761C072EB2
:1024D000F7D32800743000F045FA2E00883630001B
:1024E00000F040FA280000F03DFA2800143000F017
:1024F00039FA2800383000F035FA28007430E862E4
:102500002E6308E0A86D002805D1E06AA96AC96AAF
:10251000884200D3AC62A86E401CA866E06A696D70
:10252000814200D26865211D14225043381800F002
:102530002BFA00F0ADFAA86D002806D0A86AC06A90
:10254000E16A884201D200F091FAF1BD80B500281D
:102550000FD009490A6F002A01D072B6FEE70A6F50
:10256000521C0A67002100F061F900F031F80028E0
:1025700001D100F07BFA01BD681000200411002099
:1025800010B586B000240594049403AA04A905A8F4
:10259000FEF75AFE059802900498019000940023DB
:1025A000039A00BF08A18948FFF716FF002809D049
:1025B00072B65B480021C943C1660121816504658B
:1025C00000F034FA06B010BD49444C45000000004C
:1025D000F8B5002700260097514C206F002801D144
:1025E00072B6FEE700F048FA206F401E2067206FA9
:1025F000002837D1E06C00281BD133E0E068C668C2
:102600003000183000F0E6F9301D00F0E3F9F06A10
:10261000616D814200D26065311D554A14235843D3
:10262000101800F0B1F9F06AA16AC96A884200D3B3
:102630002566012520680028E0D1002E01D000F099
:10264000E3F8E66D002E07D000F010F8002800D067
:102650002566761EF8D1E765206E002802D0009529
:1026600000F004FA00F014FA0098F2BDF8B5002565
:102670002B4C206F00284AD1276D7F1C27650ED177
:10268000E06A0068002801D072B6FEE7E06A216BBC
:10269000E1622063606E401C606600F0B5F8E06E99
:1026A000874227D31BE0301D00F094F9B06A002860
:1026B00003D03000183000F08DF9F06A616D81426E
:1026C00000D26065311D2A4A14235843101800F0C7
:1026D0005BF9F06AA16AC96A884200D30125E06A01
:1026E0000068002810D0E06AC068C6687068874239
:1026F000D9D2E066A06A1E49C06A14225043085825
:10270000022807D3012505E00020C043F1E7E06D72
:10271000401CE065206E002800D001252800F2BD95
:102720006810002010B53F48016F002902D0012138
:10273000016610BD0166416D00E0491E0C4A14237C
:102740004B43D2181368002B03D10029F5D172B680
:10275000FEE753685B68536014000834A34201D15C
:102760005B6853605268D2688262416510BD0000A8
:102770000411002038B5C068C568002D01D172B6BB
:10278000FEE72800183000F025F9264C206F0028BD
:102790000DD1281D00F01EF9E86A616D814200D25A
:1027A0006065291D204A14235843101802E02900AF
:1027B0001831200000F0E8F8A06AC06AE96A88428F
:1027C00002D20120206632BD002032BDD127000890
:1027D00038B5154C134D0EE000F04EF9286AC0686C
:1027E000001D00F0F7F8E86C401EE864686B401EBE
:1027F000686300F04DF9686B0028EDD1206802286D
:10280000F9D300F033F9F6E70648C16A09680029F0
:1028100002D10021C94303E0C16AC968C968496897
:10282000C16670476810002004110020F8B504004C
:102830000E00134D2F6DA86A001D00F0CBF800208C
:10284000C043844208D1002E06D0A86A011D28008A
:10285000383000F099F8F1BD3C19A86A4460BC42D8
:10286000A86A04D2011D286B00F09AF8F1BD011D81
:10287000E86A00F095F8E86E844200D2EC66F1BD9B
:102880006810002038B505000C00002D01D172B68B
:10289000FEE700F0F1F82868E96B2A6C5143401814
:1028A00068600020A8632868A8602868E96B491E52
:1028B0002A6C51434018E860280044300021C94385
:1028C00001704170002C0BD12869002810D028001D
:1028D0001030FFF74FFF00280AD000F0C7F807E0DC
:1028E0002800103000F03EF82800243000F03AF8BC
:1028F00000F0CEF8012032BD1CB5002801D172B61F
:10290000FEE71C00002C01D172B6FEE7002A03D0BE
:10291000002903D172B6FEE700290AD148230093AB
:10292000009B482B07D1049B009400F006F8200080
:1029300016BD72B6FEE772B6FEE780B503000298D8
:10294000002900D102000260C36301640121FFF786
:1029500099FF01BD01484068704700BF0400002096
:10296000704770470100083141600021C943816010
:1029700001000831C16001000831016100210160DE
:10298000704700210161704742684A6093688B601C
:1029900093685960916008610168491C0160704743
:1029A00030B50A680023DB439A4201D1036907E08E
:1029B0000300083300E023005C682568AA42FAD2CD
:1029C0005A684A6091608B60596008610168491CCF
:1029D000016030BD0169826843689A60426883681B
:1029E0005A604A68824201D182684A6000220261CC
:1029F0000868401E086008687047FEE710B50300CD
:102A00000C3B802464049C6059602F491960203875
:102A10000260203810BD00002C4800680021C94326
:102A2000884201D072B6FEE772B6FEE738B5284894
:102A30000168FF2212040A4302600168FF221206A5
:102A40000A430260234D00242C60AC6022480068D9
:102A5000FA218900FEF796F9401E68600720286079
:102A60001A48046000F05FF8002032BD8020400565
:102A70001A49086006E0000072B614480168491C53
:102A8000016000BFBFF34F8FBFF36F8F704700002F
:102A90000E480168002901D172B6FEE7491E0160A7
:102AA000002900D162B6704710B500F04DF804005F
:102AB000FFF7DCFD002803D08020400507490860AF
:102AC000200000F045F810BD192A00080000002081
:102AD00020ED00E010E000E01000002004ED00E038
:102AE00080F308887047EFF309801B4B1A68203881
:102AF0001060F0C044464D4656465F46F0C008B5EB
:102B000072B6FFF70FFE62B60CBC11680868103091
:102B1000F0C8A046A946B246BB4680F309882038D3
:102B2000F0C8184770470C4B19680868203080F3CC
:102B30000988022080F31488BFF36F8F3FBCAE4634
:102B400008BC04BC62B61847EFF3108072B6704739
:102B500080F3108870470000901000207047FEE757
:102B600080B51348FDF740FF01BD80B51148FDF762
:102B70003BFF01BD80B51048FDF767FB01BD80B587
:102B80000E48FFF7C9F801BD80B50D48FFF7C4F83E
:102B900001BD80B50B48FFF7BFF80B48FFF7BCF845
:102BA0000A48FFF7B9F80A48FFF7B6F801BD000078
:102BB00090110020D411002060190020181200206C
:102BC00098120020181300209813002018140020D9
:102BD000981400205254430049525F5461736B5F54
:102BE0003100000049525F5461736B5F3200000096
:102BF00049525F5461736B5F335461736B00000023
:102C000049525F5461736B5F345461736B00000011
:102C10005063436F6E6563745461736B0000000012
:102C2000446973706C61795461736B0070B40123F3
:102C3000002413E00168001D194202D04D466D1EAC
:102C400049190C60091D121F042AFAD20D009607BB
:102C500001D50C80AD1C1A4000D02C700268001DFC
:102C6000002AE7D170BC704730B401220168001D12
:102C700000290FD00368C31844680830144202D0FA
:102C80004D466D1E64191D6825601B1D241D091FFE
:102C9000ECD0F8E730BC704710B5074979441831DB
:102CA000064C7C44163404E0081D0A6889188847DD
:102CB0000100A142F8D110BD08000000280000006A
:102CC0006DFFFFFF101A000014000020000000003C
:102CD00099FFFFFF140000006C00000000000020BE
:102CE0000000000000F00DF8002801D0FFF7D4FF2D
:102CF00000BF00BF002000BF00BFFDF7EBFE00F0EB
:102D000002F80120704780B500F002F801BDFEE72F
:102D10000746384600F002F8FBE7FEE780B500BF43
:102D200000BF024A11001820ABBEFBE726000200DC
:102D300070470000000000000000000001020304D2
:102D400006070809AAAAAAAA0100000000000000BC
:102D50000400000000127A00014880470148004743
:102D6000312D0008692D000800BF00BF00BF00BF63
:102D7000FFF7B8FF0000000001020304FEE7FEE7D2
:102D8000FEE7FEE7FEE7FEE7FEE7FEE7FEE7FEE71B
:082D9000FEE7FEE7FEE7FEE7A7
:0400000508002D6959
:00000001FF
